{
  "_format": "hh-sol-artifact-1",
  "contractName": "Blog",
  "sourceName": "contracts/Blog.sol",
  "abi": [
    {
      "inputs": [
        {
          "internalType": "string",
          "name": "_name",
          "type": "string"
        }
      ],
      "stateMutability": "nonpayable",
      "type": "constructor"
    },
    {
      "inputs": [
        {
          "internalType": "uint256",
          "name": "id",
          "type": "uint256"
        }
      ],
      "name": "Blog__InvalidTokenId",
      "type": "error"
    },
    {
      "inputs": [],
      "name": "Blog__ZeroDonationNotAllowed",
      "type": "error"
    },
    {
      "anonymous": false,
      "inputs": [
        {
          "indexed": false,
          "internalType": "uint256",
          "name": "id",
          "type": "uint256"
        },
        {
          "indexed": false,
          "internalType": "uint256",
          "name": "donation",
          "type": "uint256"
        },
        {
          "indexed": false,
          "internalType": "address",
          "name": "donor",
          "type": "address"
        }
      ],
      "name": "Donated",
      "type": "event"
    },
    {
      "anonymous": false,
      "inputs": [
        {
          "indexed": false,
          "internalType": "uint256",
          "name": "id",
          "type": "uint256"
        },
        {
          "indexed": false,
          "internalType": "string",
          "name": "title",
          "type": "string"
        },
        {
          "indexed": false,
          "internalType": "string",
          "name": "hash",
          "type": "string"
        }
      ],
      "name": "PostCreated",
      "type": "event"
    },
    {
      "anonymous": false,
      "inputs": [
        {
          "indexed": false,
          "internalType": "uint256",
          "name": "id",
          "type": "uint256"
        },
        {
          "indexed": false,
          "internalType": "string",
          "name": "title",
          "type": "string"
        },
        {
          "indexed": false,
          "internalType": "string",
          "name": "hash",
          "type": "string"
        },
        {
          "indexed": false,
          "internalType": "bool",
          "name": "published",
          "type": "bool"
        }
      ],
      "name": "PostUpdated",
      "type": "event"
    },
    {
      "inputs": [
        {
          "internalType": "string",
          "name": "title",
          "type": "string"
        },
        {
          "internalType": "string",
          "name": "hash",
          "type": "string"
        }
      ],
      "name": "createPost",
      "outputs": [],
      "stateMutability": "nonpayable",
      "type": "function"
    },
    {
      "inputs": [
        {
          "internalType": "uint256",
          "name": "postId",
          "type": "uint256"
        }
      ],
      "name": "donateToPost",
      "outputs": [],
      "stateMutability": "payable",
      "type": "function"
    },
    {
      "inputs": [
        {
          "internalType": "uint256",
          "name": "id",
          "type": "uint256"
        }
      ],
      "name": "fetchPost",
      "outputs": [
        {
          "components": [
            {
              "internalType": "uint256",
              "name": "id",
              "type": "uint256"
            },
            {
              "internalType": "string",
              "name": "title",
              "type": "string"
            },
            {
              "internalType": "string",
              "name": "content",
              "type": "string"
            },
            {
              "internalType": "bool",
              "name": "published",
              "type": "bool"
            },
            {
              "internalType": "uint256",
              "name": "donation",
              "type": "uint256"
            }
          ],
          "internalType": "struct Blog.Post",
          "name": "",
          "type": "tuple"
        }
      ],
      "stateMutability": "view",
      "type": "function"
    },
    {
      "inputs": [],
      "name": "name",
      "outputs": [
        {
          "internalType": "string",
          "name": "",
          "type": "string"
        }
      ],
      "stateMutability": "view",
      "type": "function"
    },
    {
      "inputs": [],
      "name": "owner",
      "outputs": [
        {
          "internalType": "address",
          "name": "",
          "type": "address"
        }
      ],
      "stateMutability": "view",
      "type": "function"
    },
    {
      "inputs": [
        {
          "internalType": "address",
          "name": "newOwner",
          "type": "address"
        }
      ],
      "name": "transferOwnership",
      "outputs": [],
      "stateMutability": "nonpayable",
      "type": "function"
    },
    {
      "inputs": [
        {
          "internalType": "string",
          "name": "_name",
          "type": "string"
        }
      ],
      "name": "updateName",
      "outputs": [],
      "stateMutability": "nonpayable",
      "type": "function"
    },
    {
      "inputs": [
        {
          "internalType": "uint256",
          "name": "postId",
          "type": "uint256"
        },
        {
          "internalType": "string",
          "name": "title",
          "type": "string"
        },
        {
          "internalType": "string",
          "name": "hash",
          "type": "string"
        },
        {
          "internalType": "bool",
          "name": "published",
          "type": "bool"
        }
      ],
      "name": "updatePost",
      "outputs": [],
      "stateMutability": "nonpayable",
      "type": "function"
    },
    {
      "inputs": [],
      "name": "withdraw",
      "outputs": [],
      "stateMutability": "nonpayable",
      "type": "function"
    },
    {
      "stateMutability": "payable",
      "type": "receive"
    }
  ],
  "bytecode": "0x60806040523480156200001157600080fd5b5060405162001c5538038062001c55833981810160405281019062000037919062000400565b620000836040518060400160405280601981526020017f4465706c6f79696e6720426c6f672077697468206e616d653a0000000000000081525082620000e460201b62000b211760201c565b80600090805190602001906200009b929190620001b3565b5033600160006101000a81548173ffffffffffffffffffffffffffffffffffffffff021916908373ffffffffffffffffffffffffffffffffffffffff160217905550506200054e565b620001868282604051602401620000fd929190620004ae565b6040516020818303038152906040527f4b5c4277000000000000000000000000000000000000000000000000000000007bffffffffffffffffffffffffffffffffffffffffffffffffffffffff19166020820180517bffffffffffffffffffffffffffffffffffffffffffffffffffffffff83818316178352505050506200018a60201b60201c565b5050565b60008151905060006a636f6e736f6c652e6c6f679050602083016000808483855afa5050505050565b828054620001c19062000518565b90600052602060002090601f016020900481019282620001e5576000855562000231565b82601f106200020057805160ff191683800117855562000231565b8280016001018555821562000231579182015b828111156200023057825182559160200191906001019062000213565b5b50905062000240919062000244565b5090565b5b808211156200025f57600081600090555060010162000245565b5090565b6000604051905090565b600080fd5b600080fd5b600080fd5b600080fd5b6000601f19601f8301169050919050565b7f4e487b7100000000000000000000000000000000000000000000000000000000600052604160045260246000fd5b620002cc8262000281565b810181811067ffffffffffffffff82111715620002ee57620002ed62000292565b5b80604052505050565b60006200030362000263565b9050620003118282620002c1565b919050565b600067ffffffffffffffff82111562000334576200033362000292565b5b6200033f8262000281565b9050602081019050919050565b60005b838110156200036c5780820151818401526020810190506200034f565b838111156200037c576000848401525b50505050565b600062000399620003938462000316565b620002f7565b905082815260208101848484011115620003b857620003b76200027c565b5b620003c58482856200034c565b509392505050565b600082601f830112620003e557620003e462000277565b5b8151620003f784826020860162000382565b91505092915050565b6000602082840312156200041957620004186200026d565b5b600082015167ffffffffffffffff8111156200043a576200043962000272565b5b6200044884828501620003cd565b91505092915050565b600081519050919050565b600082825260208201905092915050565b60006200047a8262000451565b6200048681856200045c565b9350620004988185602086016200034c565b620004a38162000281565b840191505092915050565b60006040820190508181036000830152620004ca81856200046d565b90508181036020830152620004e081846200046d565b90509392505050565b7f4e487b7100000000000000000000000000000000000000000000000000000000600052602260045260246000fd5b600060028204905060018216806200053157607f821691505b60208210811415620005485762000547620004e9565b5b50919050565b6116f7806200055e6000396000f3fe60806040526004361061008a5760003560e01c806384da92a71161005957806384da92a71461017a5780638da5cb5b146101a3578063b68603b6146101ce578063cd349fe9146101ea578063f2fde38b14610213576100cd565b806306fdde03146100d2578063392338f5146100fd5780633ccfd60b1461012657806375e1e07e1461013d576100cd565b366100cd577f593f63cdbc182a210eae444ebe8ddaf4715c555cc9ec337e882b387526aeddbe600034336040516100c393929190610de6565b60405180910390a1005b600080fd5b3480156100de57600080fd5b506100e761023c565b6040516100f49190610eb6565b60405180910390f35b34801561010957600080fd5b50610124600480360381019061011f9190611021565b6102ca565b005b34801561013257600080fd5b5061013b610426565b005b34801561014957600080fd5b50610164600480360381019061015f91906110c5565b610565565b60405161017191906111e3565b60405180910390f35b34801561018657600080fd5b506101a1600480360381019061019c9190611205565b6106e5565b005b3480156101af57600080fd5b506101b86106ff565b6040516101c5919061124e565b60405180910390f35b6101e860048036038101906101e391906110c5565b610725565b005b3480156101f657600080fd5b50610211600480360381019061020c9190611295565b610824565b005b34801561021f57600080fd5b5061023a60048036038101906102359190611360565b610a4d565b005b60008054610249906113bc565b80601f0160208091040260200160405190810160405280929190818152602001828054610275906113bc565b80156102c25780601f10610297576101008083540402835291602001916102c2565b820191906000526020600020905b8154815290600101906020018083116102a557829003601f168201915b505050505081565b600160009054906101000a900473ffffffffffffffffffffffffffffffffffffffff1673ffffffffffffffffffffffffffffffffffffffff163373ffffffffffffffffffffffffffffffffffffffff161461035a576040517f08c379a00000000000000000000000000000000000000000000000000000000081526004016103519061143a565b60405180910390fd5b60016002546103699190611489565b600281905550600060025490506000600360008381526020019081526020016000209050818160000181905550838160010190805190602001906103ae929190610be6565b5060018160030160006101000a81548160ff021916908315150217905550828160020190805190602001906103e4929190610be6565b507fe6851f0b99a9d86e5d68a97f65218980851216ce297f789c6b6b7e82ca1d90c8828585604051610418939291906114df565b60405180910390a150505050565b600160009054906101000a900473ffffffffffffffffffffffffffffffffffffffff1673ffffffffffffffffffffffffffffffffffffffff163373ffffffffffffffffffffffffffffffffffffffff16146104b6576040517f08c379a00000000000000000000000000000000000000000000000000000000081526004016104ad9061143a565b60405180910390fd5b60003373ffffffffffffffffffffffffffffffffffffffff16476040516104dc90611555565b60006040518083038185875af1925050503d8060008114610519576040519150601f19603f3d011682016040523d82523d6000602084013e61051e565b606091505b5050905080610562576040517f08c379a0000000000000000000000000000000000000000000000000000000008152600401610559906115b6565b60405180910390fd5b50565b61056d610c6c565b600360008381526020019081526020016000206040518060a0016040529081600082015481526020016001820180546105a5906113bc565b80601f01602080910402602001604051908101604052809291908181526020018280546105d1906113bc565b801561061e5780601f106105f35761010080835404028352916020019161061e565b820191906000526020600020905b81548152906001019060200180831161060157829003601f168201915b50505050508152602001600282018054610637906113bc565b80601f0160208091040260200160405190810160405280929190818152602001828054610663906113bc565b80156106b05780601f10610685576101008083540402835291602001916106b0565b820191906000526020600020905b81548152906001019060200180831161069357829003601f168201915b505050505081526020016003820160009054906101000a900460ff161515151581526020016004820154815250509050919050565b80600090805190602001906106fb929190610be6565b5050565b600160009054906101000a900473ffffffffffffffffffffffffffffffffffffffff1681565b806002548111806107365750600081145b1561077857806040517ff3af17b300000000000000000000000000000000000000000000000000000000815260040161076f91906115d6565b60405180910390fd5b600034116107b2576040517f8348108000000000000000000000000000000000000000000000000000000000815260040160405180910390fd5b6000600360008481526020019081526020016000209050348160040160008282546107dd9190611489565b925050819055507f593f63cdbc182a210eae444ebe8ddaf4715c555cc9ec337e882b387526aeddbe833433604051610817939291906115f1565b60405180910390a1505050565b836002548111806108355750600081145b1561087757806040517ff3af17b300000000000000000000000000000000000000000000000000000000815260040161086e91906115d6565b60405180910390fd5b600160009054906101000a900473ffffffffffffffffffffffffffffffffffffffff1673ffffffffffffffffffffffffffffffffffffffff163373ffffffffffffffffffffffffffffffffffffffff1614610907576040517f08c379a00000000000000000000000000000000000000000000000000000000081526004016108fe9061143a565b60405180910390fd5b600060036000878152602001908152602001600020905084816001019080519060200190610936929190610be6565b50828160030160006101000a81548160ff0219169083151502179055508381600201908051906020019061096b929190610be6565b50806003600088815260200190815260200160002060008201548160000155600182018160010190805461099e906113bc565b6109a9929190610c9d565b5060028201816002019080546109be906113bc565b6109c9929190610c9d565b506003820160009054906101000a900460ff168160030160006101000a81548160ff021916908315150217905550600482015481600401559050507f9f8eb93fc073102bbd3072664634ab200707a4f11d94aace9cc8d0e4d019eff58160000154868686604051610a3d9493929190611637565b60405180910390a1505050505050565b600160009054906101000a900473ffffffffffffffffffffffffffffffffffffffff1673ffffffffffffffffffffffffffffffffffffffff163373ffffffffffffffffffffffffffffffffffffffff1614610add576040517f08c379a0000000000000000000000000000000000000000000000000000000008152600401610ad49061143a565b60405180910390fd5b80600160006101000a81548173ffffffffffffffffffffffffffffffffffffffff021916908373ffffffffffffffffffffffffffffffffffffffff16021790555050565b610bb98282604051602401610b3792919061168a565b6040516020818303038152906040527f4b5c4277000000000000000000000000000000000000000000000000000000007bffffffffffffffffffffffffffffffffffffffffffffffffffffffff19166020820180517bffffffffffffffffffffffffffffffffffffffffffffffffffffffff8381831617835250505050610bbd565b5050565b60008151905060006a636f6e736f6c652e6c6f679050602083016000808483855afa5050505050565b828054610bf2906113bc565b90600052602060002090601f016020900481019282610c145760008555610c5b565b82601f10610c2d57805160ff1916838001178555610c5b565b82800160010185558215610c5b579182015b82811115610c5a578251825591602001919060010190610c3f565b5b509050610c689190610d2a565b5090565b6040518060a00160405280600081526020016060815260200160608152602001600015158152602001600081525090565b828054610ca9906113bc565b90600052602060002090601f016020900481019282610ccb5760008555610d19565b82601f10610cdc5780548555610d19565b82800160010185558215610d1957600052602060002091601f016020900482015b82811115610d18578254825591600101919060010190610cfd565b5b509050610d269190610d2a565b5090565b5b80821115610d43576000816000905550600101610d2b565b5090565b6000819050919050565b6000819050919050565b6000819050919050565b6000610d80610d7b610d7684610d47565b610d5b565b610d51565b9050919050565b610d9081610d65565b82525050565b610d9f81610d51565b82525050565b600073ffffffffffffffffffffffffffffffffffffffff82169050919050565b6000610dd082610da5565b9050919050565b610de081610dc5565b82525050565b6000606082019050610dfb6000830186610d87565b610e086020830185610d96565b610e156040830184610dd7565b949350505050565b600081519050919050565b600082825260208201905092915050565b60005b83811015610e57578082015181840152602081019050610e3c565b83811115610e66576000848401525b50505050565b6000601f19601f8301169050919050565b6000610e8882610e1d565b610e928185610e28565b9350610ea2818560208601610e39565b610eab81610e6c565b840191505092915050565b60006020820190508181036000830152610ed08184610e7d565b905092915050565b6000604051905090565b600080fd5b600080fd5b600080fd5b600080fd5b7f4e487b7100000000000000000000000000000000000000000000000000000000600052604160045260246000fd5b610f2e82610e6c565b810181811067ffffffffffffffff82111715610f4d57610f4c610ef6565b5b80604052505050565b6000610f60610ed8565b9050610f6c8282610f25565b919050565b600067ffffffffffffffff821115610f8c57610f8b610ef6565b5b610f9582610e6c565b9050602081019050919050565b82818337600083830152505050565b6000610fc4610fbf84610f71565b610f56565b905082815260208101848484011115610fe057610fdf610ef1565b5b610feb848285610fa2565b509392505050565b600082601f83011261100857611007610eec565b5b8135611018848260208601610fb1565b91505092915050565b6000806040838503121561103857611037610ee2565b5b600083013567ffffffffffffffff81111561105657611055610ee7565b5b61106285828601610ff3565b925050602083013567ffffffffffffffff81111561108357611082610ee7565b5b61108f85828601610ff3565b9150509250929050565b6110a281610d51565b81146110ad57600080fd5b50565b6000813590506110bf81611099565b92915050565b6000602082840312156110db576110da610ee2565b5b60006110e9848285016110b0565b91505092915050565b6110fb81610d51565b82525050565b600082825260208201905092915050565b600061111d82610e1d565b6111278185611101565b9350611137818560208601610e39565b61114081610e6c565b840191505092915050565b60008115159050919050565b6111608161114b565b82525050565b600060a08301600083015161117e60008601826110f2565b50602083015184820360208601526111968282611112565b915050604083015184820360408601526111b08282611112565b91505060608301516111c56060860182611157565b5060808301516111d860808601826110f2565b508091505092915050565b600060208201905081810360008301526111fd8184611166565b905092915050565b60006020828403121561121b5761121a610ee2565b5b600082013567ffffffffffffffff81111561123957611238610ee7565b5b61124584828501610ff3565b91505092915050565b60006020820190506112636000830184610dd7565b92915050565b6112728161114b565b811461127d57600080fd5b50565b60008135905061128f81611269565b92915050565b600080600080608085870312156112af576112ae610ee2565b5b60006112bd878288016110b0565b945050602085013567ffffffffffffffff8111156112de576112dd610ee7565b5b6112ea87828801610ff3565b935050604085013567ffffffffffffffff81111561130b5761130a610ee7565b5b61131787828801610ff3565b925050606061132887828801611280565b91505092959194509250565b61133d81610dc5565b811461134857600080fd5b50565b60008135905061135a81611334565b92915050565b60006020828403121561137657611375610ee2565b5b60006113848482850161134b565b91505092915050565b7f4e487b7100000000000000000000000000000000000000000000000000000000600052602260045260246000fd5b600060028204905060018216806113d457607f821691505b602082108114156113e8576113e761138d565b5b50919050565b7f4f6e6c79206f776e65722063616e2063616c6c20746869730000000000000000600082015250565b6000611424601883610e28565b915061142f826113ee565b602082019050919050565b6000602082019050818103600083015261145381611417565b9050919050565b7f4e487b7100000000000000000000000000000000000000000000000000000000600052601160045260246000fd5b600061149482610d51565b915061149f83610d51565b9250827fffffffffffffffffffffffffffffffffffffffffffffffffffffffffffffffff038211156114d4576114d361145a565b5b828201905092915050565b60006060820190506114f46000830186610d96565b81810360208301526115068185610e7d565b9050818103604083015261151a8184610e7d565b9050949350505050565b600081905092915050565b50565b600061153f600083611524565b915061154a8261152f565b600082019050919050565b600061156082611532565b9150819050919050565b7f5769746864726177616c2066616c696564000000000000000000000000000000600082015250565b60006115a0601183610e28565b91506115ab8261156a565b602082019050919050565b600060208201905081810360008301526115cf81611593565b9050919050565b60006020820190506115eb6000830184610d96565b92915050565b60006060820190506116066000830186610d96565b6116136020830185610d96565b6116206040830184610dd7565b949350505050565b6116318161114b565b82525050565b600060808201905061164c6000830187610d96565b818103602083015261165e8186610e7d565b905081810360408301526116728185610e7d565b90506116816060830184611628565b95945050505050565b600060408201905081810360008301526116a48185610e7d565b905081810360208301526116b88184610e7d565b9050939250505056fea264697066735822122058db857f05853271ec8f63d34afbfd8c3adfa532794959e2718b65153de4b1d464736f6c63430008090033",
  "linkReferences": {},
  "deployedLinkReferences": {}
}